{"31337":{"NftMarketplace":["0x5FbDB2315678afecb367f032d93F642f64180aa3"]},"_format":"hh-sol-artifact-1","contractName":"NftMarket","sourceName":"contracts/NFTMarket.sol","abi":[{"inputs":[],"stateMutability":"nonpayable","type":"constructor"},{"inputs":[],"name":"NftMarket__NoProceeds","type":"error"},{"inputs":[],"name":"NftMarket__TransferFailed","type":"error"},{"anonymous":false,"inputs":[{"indexed":true,"internalType":"address","name":"owner","type":"address"},{"indexed":true,"internalType":"address","name":"approved","type":"address"},{"indexed":true,"internalType":"uint256","name":"tokenId","type":"uint256"}],"name":"Approval","type":"event"},{"anonymous":false,"inputs":[{"indexed":true,"internalType":"address","name":"owner","type":"address"},{"indexed":true,"internalType":"address","name":"operator","type":"address"},{"indexed":false,"internalType":"bool","name":"approved","type":"bool"}],"name":"ApprovalForAll","type":"event"},{"anonymous":false,"inputs":[{"indexed":true,"internalType":"address","name":"buyer","type":"address"},{"indexed":true,"internalType":"address","name":"nftAddress","type":"address"},{"indexed":true,"internalType":"uint256","name":"tokenId","type":"uint256"},{"indexed":false,"internalType":"uint256","name":"price","type":"uint256"}],"name":"ItemBought","type":"event"},{"anonymous":false,"inputs":[{"indexed":true,"internalType":"address","name":"seller","type":"address"},{"indexed":true,"internalType":"address","name":"nftAddress","type":"address"},{"indexed":true,"internalType":"uint256","name":"tokenId","type":"uint256"}],"name":"ItemCanceled","type":"event"},{"anonymous":false,"inputs":[{"indexed":true,"internalType":"address","name":"seller","type":"address"},{"indexed":true,"internalType":"address","name":"nftAddress","type":"address"},{"indexed":true,"internalType":"uint256","name":"tokenId","type":"uint256"},{"indexed":false,"internalType":"uint256","name":"price","type":"uint256"}],"name":"ItemListed","type":"event"},{"anonymous":false,"inputs":[{"indexed":true,"internalType":"uint256","name":"tokenId","type":"uint256"},{"indexed":false,"internalType":"address","name":"seller","type":"address"},{"indexed":false,"internalType":"address","name":"owner","type":"address"},{"indexed":false,"internalType":"uint256","name":"price","type":"uint256"},{"indexed":false,"internalType":"bool","name":"sold","type":"bool"}],"name":"MarketItemCreated","type":"event"},{"anonymous":false,"inputs":[{"indexed":true,"internalType":"address","name":"from","type":"address"},{"indexed":true,"internalType":"address","name":"to","type":"address"},{"indexed":true,"internalType":"uint256","name":"tokenId","type":"uint256"}],"name":"Transfer","type":"event"},{"inputs":[{"internalType":"address","name":"to","type":"address"},{"internalType":"uint256","name":"tokenId","type":"uint256"}],"name":"approve","outputs":[],"stateMutability":"nonpayable","type":"function"},{"inputs":[{"internalType":"address","name":"owner","type":"address"}],"name":"balanceOf","outputs":[{"internalType":"uint256","name":"","type":"uint256"}],"stateMutability":"view","type":"function"},{"inputs":[{"internalType":"uint256","name":"tokenId","type":"uint256"}],"name":"cancelItemListing","outputs":[],"stateMutability":"nonpayable","type":"function"},{"inputs":[{"internalType":"uint256","name":"tokenId","type":"uint256"}],"name":"createMarketSale","outputs":[],"stateMutability":"payable","type":"function"},{"inputs":[{"internalType":"string","name":"tokenURI","type":"string"},{"internalType":"uint256","name":"price","type":"uint256"}],"name":"createToken","outputs":[{"internalType":"uint256","name":"","type":"uint256"}],"stateMutability":"payable","type":"function"},{"inputs":[],"name":"fetchItemsListed","outputs":[{"components":[{"internalType":"uint256","name":"tokenId","type":"uint256"},{"internalType":"address payable","name":"seller","type":"address"},{"internalType":"address payable","name":"owner","type":"address"},{"internalType":"uint256","name":"price","type":"uint256"},{"internalType":"bool","name":"sold","type":"bool"}],"internalType":"struct NftMarket.MarketItem[]","name":"","type":"tuple[]"}],"stateMutability":"view","type":"function"},{"inputs":[],"name":"fetchMarketItems","outputs":[{"components":[{"internalType":"uint256","name":"tokenId","type":"uint256"},{"internalType":"address payable","name":"seller","type":"address"},{"internalType":"address payable","name":"owner","type":"address"},{"internalType":"uint256","name":"price","type":"uint256"},{"internalType":"bool","name":"sold","type":"bool"}],"internalType":"struct NftMarket.MarketItem[]","name":"","type":"tuple[]"}],"stateMutability":"view","type":"function"},{"inputs":[],"name":"fetchMyNFTs","outputs":[{"components":[{"internalType":"uint256","name":"tokenId","type":"uint256"},{"internalType":"address payable","name":"seller","type":"address"},{"internalType":"address payable","name":"owner","type":"address"},{"internalType":"uint256","name":"price","type":"uint256"},{"internalType":"bool","name":"sold","type":"bool"}],"internalType":"struct NftMarket.MarketItem[]","name":"","type":"tuple[]"}],"stateMutability":"view","type":"function"},{"inputs":[{"internalType":"uint256","name":"tokenId","type":"uint256"}],"name":"getApproved","outputs":[{"internalType":"address","name":"","type":"address"}],"stateMutability":"view","type":"function"},{"inputs":[{"internalType":"uint256","name":"tokenId","type":"uint256"}],"name":"getListing","outputs":[{"components":[{"internalType":"uint256","name":"tokenId","type":"uint256"},{"internalType":"address payable","name":"seller","type":"address"},{"internalType":"address payable","name":"owner","type":"address"},{"internalType":"uint256","name":"price","type":"uint256"},{"internalType":"bool","name":"sold","type":"bool"}],"internalType":"struct NftMarket.MarketItem","name":"","type":"tuple"}],"stateMutability":"view","type":"function"},{"inputs":[],"name":"getListingPrice","outputs":[{"internalType":"uint256","name":"","type":"uint256"}],"stateMutability":"view","type":"function"},{"inputs":[{"internalType":"address","name":"seller","type":"address"}],"name":"getProceeds","outputs":[{"internalType":"uint256","name":"","type":"uint256"}],"stateMutability":"view","type":"function"},{"inputs":[{"internalType":"address","name":"owner","type":"address"},{"internalType":"address","name":"operator","type":"address"}],"name":"isApprovedForAll","outputs":[{"internalType":"bool","name":"","type":"bool"}],"stateMutability":"view","type":"function"},{"inputs":[],"name":"name","outputs":[{"internalType":"string","name":"","type":"string"}],"stateMutability":"view","type":"function"},{"inputs":[{"internalType":"uint256","name":"tokenId","type":"uint256"}],"name":"ownerOf","outputs":[{"internalType":"address","name":"","type":"address"}],"stateMutability":"view","type":"function"},{"inputs":[{"internalType":"uint256","name":"tokenId","type":"uint256"},{"internalType":"uint256","name":"price","type":"uint256"}],"name":"resellToken","outputs":[],"stateMutability":"payable","type":"function"},{"inputs":[{"internalType":"address","name":"from","type":"address"},{"internalType":"address","name":"to","type":"address"},{"internalType":"uint256","name":"tokenId","type":"uint256"}],"name":"safeTransferFrom","outputs":[],"stateMutability":"nonpayable","type":"function"},{"inputs":[{"internalType":"address","name":"from","type":"address"},{"internalType":"address","name":"to","type":"address"},{"internalType":"uint256","name":"tokenId","type":"uint256"},{"internalType":"bytes","name":"data","type":"bytes"}],"name":"safeTransferFrom","outputs":[],"stateMutability":"nonpayable","type":"function"},{"inputs":[{"internalType":"address","name":"operator","type":"address"},{"internalType":"bool","name":"approved","type":"bool"}],"name":"setApprovalForAll","outputs":[],"stateMutability":"nonpayable","type":"function"},{"inputs":[{"internalType":"bytes4","name":"interfaceId","type":"bytes4"}],"name":"supportsInterface","outputs":[{"internalType":"bool","name":"","type":"bool"}],"stateMutability":"view","type":"function"},{"inputs":[],"name":"symbol","outputs":[{"internalType":"string","name":"","type":"string"}],"stateMutability":"view","type":"function"},{"inputs":[{"internalType":"uint256","name":"tokenId","type":"uint256"}],"name":"tokenURI","outputs":[{"internalType":"string","name":"","type":"string"}],"stateMutability":"view","type":"function"},{"inputs":[{"internalType":"address","name":"from","type":"address"},{"internalType":"address","name":"to","type":"address"},{"internalType":"uint256","name":"tokenId","type":"uint256"}],"name":"transferFrom","outputs":[],"stateMutability":"nonpayable","type":"function"},{"inputs":[{"internalType":"uint256","name":"_listingPrice","type":"uint256"}],"name":"updateListingPrice","outputs":[],"stateMutability":"payable","type":"function"},{"inputs":[],"name":"withdrawProceeds","outputs":[],"stateMutability":"nonpayable","type":"function"}],"bytecode":"0x608060405266038d7ea4c68000600a553480156200001c57600080fd5b506040518060400160405280601081526020017f4d657461766572736520546f6b656e73000000000000000000000000000000008152506040518060400160405280600481526020017f4d455441000000000000000000000000000000000000000000000000000000008152508160009080519060200190620000a19291906200010c565b508060019080519060200190620000ba9291906200010c565b505050600160078190555033600b60006101000a81548173ffffffffffffffffffffffffffffffffffffffff021916908373ffffffffffffffffffffffffffffffffffffffff16021790555062000221565b8280546200011a90620001bc565b90600052602060002090601f0160209004810192826200013e57600085556200018a565b82601f106200015957805160ff19168380011785556200018a565b828001600101855582156200018a579182015b82811115620001895782518255916020019190600101906200016c565b5b5090506200019991906200019d565b5090565b5b80821115620001b85760008160009055506001016200019e565b5090565b60006002820490506001821680620001d557607f821691505b60208210811415620001ec57620001eb620001f2565b5b50919050565b7f4e487b7100000000000000000000000000000000000000000000000000000000600052602260045260246000fd5b614acf80620002316000396000f3fe6080604052600436106101665760003560e01c806345f8fa80116100d1578063a22cb4651161008a578063be9af53611610064578063be9af53614610534578063c87b56dd14610550578063e219fc751461058d578063e985e9c5146105a957610166565b8063a22cb465146104c6578063ae677aa3146104ef578063b88d4fde1461050b57610166565b806345f8fa80146103af5780636352211e146103da57806370a082311461041757806372b3b620146104545780639038e6931461048457806395d89b411461049b57610166565b806312e855851161012357806312e85585146102a1578063202e3740146102cc57806323b872dd146102f7578063260070d81461032057806330cfeda91461034957806342842e0e1461038657610166565b806301ffc9a71461016b57806306fdde03146101a8578063081812fc146101d3578063095ea7b3146102105780630f08efe014610239578063107a274a14610264575b600080fd5b34801561017757600080fd5b50610192600480360381019061018d91906135d7565b6105e6565b60405161019f9190613d38565b60405180910390f35b3480156101b457600080fd5b506101bd6106c8565b6040516101ca9190613d53565b60405180910390f35b3480156101df57600080fd5b506101fa60048036038101906101f5919061368d565b61075a565b6040516102079190613c78565b60405180910390f35b34801561021c57600080fd5b5061023760048036038101906102329190613597565b6107a0565b005b34801561024557600080fd5b5061024e6108b8565b60405161025b9190613d16565b60405180910390f35b34801561027057600080fd5b5061028b6004803603810190610286919061368d565b610b21565b6040516102989190614015565b60405180910390f35b3480156102ad57600080fd5b506102b6610c29565b6040516102c39190614030565b60405180910390f35b3480156102d857600080fd5b506102e1610c33565b6040516102ee9190613d16565b60405180910390f35b34801561030357600080fd5b5061031e60048036038101906103199190613481565b610f21565b005b34801561032c57600080fd5b506103476004803603810190610342919061368d565b610f81565b005b34801561035557600080fd5b50610370600480360381019061036b9190613414565b611301565b60405161037d9190614030565b60405180910390f35b34801561039257600080fd5b506103ad60048036038101906103a89190613481565b61134a565b005b3480156103bb57600080fd5b506103c461136a565b6040516103d19190613d16565b60405180910390f35b3480156103e657600080fd5b5061040160048036038101906103fc919061368d565b611658565b60405161040e9190613c78565b60405180910390f35b34801561042357600080fd5b5061043e60048036038101906104399190613414565b61170a565b60405161044b9190614030565b60405180910390f35b61046e60048036038101906104699190613631565b6117c2565b60405161047b9190614030565b60405180910390f35b34801561049057600080fd5b50610499611804565b005b3480156104a757600080fd5b506104b061196e565b6040516104bd9190613d53565b60405180910390f35b3480156104d257600080fd5b506104ed60048036038101906104e89190613557565b611a00565b005b6105096004803603810190610504919061368d565b611a16565b005b34801561051757600080fd5b50610532600480360381019061052d91906134d4565b611b3a565b005b61054e6004803603810190610549919061368d565b611b9c565b005b34801561055c57600080fd5b506105776004803603810190610572919061368d565b611e30565b6040516105849190613d53565b60405180910390f35b6105a760048036038101906105a291906136ba565b611f43565b005b3480156105b557600080fd5b506105d060048036038101906105cb9190613441565b61219e565b6040516105dd9190613d38565b60405180910390f35b60007f80ac58cd000000000000000000000000000000000000000000000000000000007bffffffffffffffffffffffffffffffffffffffffffffffffffffffff1916827bffffffffffffffffffffffffffffffffffffffffffffffffffffffff191614806106b157507f5b5e139f000000000000000000000000000000000000000000000000000000007bffffffffffffffffffffffffffffffffffffffffffffffffffffffff1916827bffffffffffffffffffffffffffffffffffffffffffffffffffffffff1916145b806106c157506106c082612232565b5b9050919050565b6060600080546106d7906142dc565b80601f0160208091040260200160405190810160405280929190818152602001828054610703906142dc565b80156107505780601f1061072557610100808354040283529160200191610750565b820191906000526020600020905b81548152906001019060200180831161073357829003601f168201915b5050505050905090565b60006107658261229c565b6004600083815260200190815260200160002060009054906101000a900473ffffffffffffffffffffffffffffffffffffffff169050919050565b60006107ab82611658565b90508073ffffffffffffffffffffffffffffffffffffffff168373ffffffffffffffffffffffffffffffffffffffff16141561081c576040517f08c379a000000000000000000000000000000000000000000000000000000000815260040161081390613f75565b60405180910390fd5b8073ffffffffffffffffffffffffffffffffffffffff1661083b6122e7565b73ffffffffffffffffffffffffffffffffffffffff16148061086a5750610869816108646122e7565b61219e565b5b6108a9576040517f08c379a00000000000000000000000000000000000000000000000000000000081526004016108a090613ef5565b60405180910390fd5b6108b383836122ef565b505050565b606060006108c660086123a8565b905060006108d460096123a8565b6108de60086123a8565b6108e891906141e0565b90506000808267ffffffffffffffff81111561090757610906614475565b5b60405190808252806020026020018201604052801561094057816020015b61092d6131cb565b8152602001906001900390816109255790505b50905060005b84811015610b16573073ffffffffffffffffffffffffffffffffffffffff16600c60006001846109769190614159565b815260200190815260200160002060020160009054906101000a900473ffffffffffffffffffffffffffffffffffffffff1673ffffffffffffffffffffffffffffffffffffffff161415610b035760006001826109d39190614159565b90506000600c60008381526020019081526020016000209050806040518060a0016040529081600082015481526020016001820160009054906101000a900473ffffffffffffffffffffffffffffffffffffffff1673ffffffffffffffffffffffffffffffffffffffff1673ffffffffffffffffffffffffffffffffffffffff1681526020016002820160009054906101000a900473ffffffffffffffffffffffffffffffffffffffff1673ffffffffffffffffffffffffffffffffffffffff1673ffffffffffffffffffffffffffffffffffffffff168152602001600382015481526020016004820160009054906101000a900460ff161515151581525050848681518110610ae657610ae5614446565b5b6020026020010181905250600185610afe9190614159565b945050505b8080610b0e9061433f565b915050610946565b508094505050505090565b610b296131cb565b600c60008381526020019081526020016000206040518060a0016040529081600082015481526020016001820160009054906101000a900473ffffffffffffffffffffffffffffffffffffffff1673ffffffffffffffffffffffffffffffffffffffff1673ffffffffffffffffffffffffffffffffffffffff1681526020016002820160009054906101000a900473ffffffffffffffffffffffffffffffffffffffff1673ffffffffffffffffffffffffffffffffffffffff1673ffffffffffffffffffffffffffffffffffffffff168152602001600382015481526020016004820160009054906101000a900460ff1615151515815250509050919050565b6000600a54905090565b60606000610c4160086123a8565b905060008060005b83811015610cea573373ffffffffffffffffffffffffffffffffffffffff16600c6000600184610c799190614159565b815260200190815260200160002060020160009054906101000a900473ffffffffffffffffffffffffffffffffffffffff1673ffffffffffffffffffffffffffffffffffffffff161415610cd757600183610cd49190614159565b92505b8080610ce29061433f565b915050610c49565b5060008267ffffffffffffffff811115610d0757610d06614475565b5b604051908082528060200260200182016040528015610d4057816020015b610d2d6131cb565b815260200190600190039081610d255790505b50905060005b84811015610f16573373ffffffffffffffffffffffffffffffffffffffff16600c6000600184610d769190614159565b815260200190815260200160002060020160009054906101000a900473ffffffffffffffffffffffffffffffffffffffff1673ffffffffffffffffffffffffffffffffffffffff161415610f03576000600182610dd39190614159565b90506000600c60008381526020019081526020016000209050806040518060a0016040529081600082015481526020016001820160009054906101000a900473ffffffffffffffffffffffffffffffffffffffff1673ffffffffffffffffffffffffffffffffffffffff1673ffffffffffffffffffffffffffffffffffffffff1681526020016002820160009054906101000a900473ffffffffffffffffffffffffffffffffffffffff1673ffffffffffffffffffffffffffffffffffffffff1673ffffffffffffffffffffffffffffffffffffffff168152602001600382015481526020016004820160009054906101000a900460ff161515151581525050848681518110610ee657610ee5614446565b5b6020026020010181905250600185610efe9190614159565b945050505b8080610f0e9061433f565b915050610d46565b508094505050505090565b610f32610f2c6122e7565b826123b6565b610f71576040517f08c379a0000000000000000000000000000000000000000000000000000000008152600401610f6890613fb5565b60405180910390fd5b610f7c83838361244b565b505050565b60026007541415610fc7576040517f08c379a0000000000000000000000000000000000000000000000000000000008152600401610fbe90613fd5565b60405180910390fd5b60026007819055503373ffffffffffffffffffffffffffffffffffffffff16600c600083815260200190815260200160002060010160009054906101000a900473ffffffffffffffffffffffffffffffffffffffff1673ffffffffffffffffffffffffffffffffffffffff1614611073576040517f08c379a000000000000000000000000000000000000000000000000000000000815260040161106a90613e75565b60405180910390fd5b60001515600c600083815260200190815260200160002060040160009054906101000a900460ff161515146110dd576040517f08c379a00000000000000000000000000000000000000000000000000000000081526004016110d490613ff5565b60405180910390fd5b33600c600083815260200190815260200160002060020160006101000a81548173ffffffffffffffffffffffffffffffffffffffff021916908373ffffffffffffffffffffffffffffffffffffffff1602179055506000600c600083815260200190815260200160002060010160006101000a81548173ffffffffffffffffffffffffffffffffffffffff021916908373ffffffffffffffffffffffffffffffffffffffff1602179055506001600c600083815260200190815260200160002060040160006101000a81548160ff0219169083151502179055506111c160096126b2565b600b60009054906101000a900473ffffffffffffffffffffffffffffffffffffffff1673ffffffffffffffffffffffffffffffffffffffff166108fc600a549081150290604051600060405180830381858888f1935050505015801561122b573d6000803e3d6000fd5b503073ffffffffffffffffffffffffffffffffffffffff166342842e0e3033846040518463ffffffff1660e01b815260040161126993929190613c93565b600060405180830381600087803b15801561128357600080fd5b505af1158015611297573d6000803e3d6000fd5b50505050803073ffffffffffffffffffffffffffffffffffffffff163373ffffffffffffffffffffffffffffffffffffffff167f9ba1a3cb55ce8d63d072a886f94d2a744f50cddf82128e897d0661f5ec62315860405160405180910390a4600160078190555050565b6000600d60008373ffffffffffffffffffffffffffffffffffffffff1673ffffffffffffffffffffffffffffffffffffffff168152602001908152602001600020549050919050565b61136583838360405180602001604052806000815250611b3a565b505050565b6060600061137860086123a8565b905060008060005b83811015611421573373ffffffffffffffffffffffffffffffffffffffff16600c60006001846113b09190614159565b815260200190815260200160002060010160009054906101000a900473ffffffffffffffffffffffffffffffffffffffff1673ffffffffffffffffffffffffffffffffffffffff16141561140e5760018361140b9190614159565b92505b80806114199061433f565b915050611380565b5060008267ffffffffffffffff81111561143e5761143d614475565b5b60405190808252806020026020018201604052801561147757816020015b6114646131cb565b81526020019060019003908161145c5790505b50905060005b8481101561164d573373ffffffffffffffffffffffffffffffffffffffff16600c60006001846114ad9190614159565b815260200190815260200160002060010160009054906101000a900473ffffffffffffffffffffffffffffffffffffffff1673ffffffffffffffffffffffffffffffffffffffff16141561163a57600060018261150a9190614159565b90506000600c60008381526020019081526020016000209050806040518060a0016040529081600082015481526020016001820160009054906101000a900473ffffffffffffffffffffffffffffffffffffffff1673ffffffffffffffffffffffffffffffffffffffff1673ffffffffffffffffffffffffffffffffffffffff1681526020016002820160009054906101000a900473ffffffffffffffffffffffffffffffffffffffff1673ffffffffffffffffffffffffffffffffffffffff1673ffffffffffffffffffffffffffffffffffffffff168152602001600382015481526020016004820160009054906101000a900460ff16151515158152505084868151811061161d5761161c614446565b5b60200260200101819052506001856116359190614159565b945050505b80806116459061433f565b91505061147d565b508094505050505090565b6000806002600084815260200190815260200160002060009054906101000a900473ffffffffffffffffffffffffffffffffffffffff169050600073ffffffffffffffffffffffffffffffffffffffff168173ffffffffffffffffffffffffffffffffffffffff161415611701576040517f08c379a00000000000000000000000000000000000000000000000000000000081526004016116f890613f55565b60405180910390fd5b80915050919050565b60008073ffffffffffffffffffffffffffffffffffffffff168273ffffffffffffffffffffffffffffffffffffffff16141561177b576040517f08c379a000000000000000000000000000000000000000000000000000000000815260040161177290613e95565b60405180910390fd5b600360008373ffffffffffffffffffffffffffffffffffffffff1673ffffffffffffffffffffffffffffffffffffffff168152602001908152602001600020549050919050565b60006117ce60086126b2565b60006117da60086123a8565b90506117e633826126c8565b6117f081856128a2565b6117fa8184612916565b8091505092915050565b6000600d60003373ffffffffffffffffffffffffffffffffffffffff1673ffffffffffffffffffffffffffffffffffffffff16815260200190815260200160002054905060008111611882576040517f07cd4b5d00000000000000000000000000000000000000000000000000000000815260040160405180910390fd5b6000600d60003373ffffffffffffffffffffffffffffffffffffffff1673ffffffffffffffffffffffffffffffffffffffff1681526020019081526020016000208190555060003373ffffffffffffffffffffffffffffffffffffffff16826040516118ed90613c63565b60006040518083038185875af1925050503d806000811461192a576040519150601f19603f3d011682016040523d82523d6000602084013e61192f565b606091505b505090508061196a576040517f9d88dbc800000000000000000000000000000000000000000000000000000000815260040160405180910390fd5b5050565b60606001805461197d906142dc565b80601f01602080910402602001604051908101604052809291908181526020018280546119a9906142dc565b80156119f65780601f106119cb576101008083540402835291602001916119f6565b820191906000526020600020905b8154815290600101906020018083116119d957829003601f168201915b5050505050905090565b611a12611a0b6122e7565b8383612b96565b5050565b3373ffffffffffffffffffffffffffffffffffffffff16600b60009054906101000a900473ffffffffffffffffffffffffffffffffffffffff1673ffffffffffffffffffffffffffffffffffffffff1614611aa6576040517f08c379a0000000000000000000000000000000000000000000000000000000008152600401611a9d90613d75565b60405180910390fd5b80600a81905550600b8060009054906101000a900473ffffffffffffffffffffffffffffffffffffffff1673ffffffffffffffffffffffffffffffffffffffff163373ffffffffffffffffffffffffffffffffffffffff167fd547e933094f12a9159076970143ebe73234e64480317844b0dcb36117116de4600a54604051611b2f9190614030565b60405180910390a450565b611b4b611b456122e7565b836123b6565b611b8a576040517f08c379a0000000000000000000000000000000000000000000000000000000008152600401611b8190613fb5565b60405180910390fd5b611b9684848484612d03565b50505050565b60026007541415611be2576040517f08c379a0000000000000000000000000000000000000000000000000000000008152600401611bd990613fd5565b60405180910390fd5b60026007819055506000600c60008381526020019081526020016000206003015490506000600c600084815260200190815260200160002060010160009054906101000a900473ffffffffffffffffffffffffffffffffffffffff169050813414611c82576040517f08c379a0000000000000000000000000000000000000000000000000000000008152600401611c7990613ed5565b60405180910390fd5b33600c600085815260200190815260200160002060020160006101000a81548173ffffffffffffffffffffffffffffffffffffffff021916908373ffffffffffffffffffffffffffffffffffffffff1602179055506001600c600085815260200190815260200160002060040160006101000a81548160ff0219169083151502179055506000600c600085815260200190815260200160002060010160006101000a81548173ffffffffffffffffffffffffffffffffffffffff021916908373ffffffffffffffffffffffffffffffffffffffff160217905550611d6660096126b2565b611d7130338561244b565b600b60009054906101000a900473ffffffffffffffffffffffffffffffffffffffff1673ffffffffffffffffffffffffffffffffffffffff166108fc600a549081150290604051600060405180830381858888f19350505050158015611ddb573d6000803e3d6000fd5b508073ffffffffffffffffffffffffffffffffffffffff166108fc349081150290604051600060405180830381858888f19350505050158015611e22573d6000803e3d6000fd5b505050600160078190555050565b6060611e3b8261229c565b6000600660008481526020019081526020016000208054611e5b906142dc565b80601f0160208091040260200160405190810160405280929190818152602001828054611e87906142dc565b8015611ed45780601f10611ea957610100808354040283529160200191611ed4565b820191906000526020600020905b815481529060010190602001808311611eb757829003601f168201915b505050505090506000611ee5612d5f565b9050600081511415611efb578192505050611f3e565b600082511115611f30578082604051602001611f18929190613c3f565b60405160208183030381529060405292505050611f3e565b611f3984612d76565b925050505b919050565b3373ffffffffffffffffffffffffffffffffffffffff16600c600084815260200190815260200160002060020160009054906101000a900473ffffffffffffffffffffffffffffffffffffffff1673ffffffffffffffffffffffffffffffffffffffff1614611fe7576040517f08c379a0000000000000000000000000000000000000000000000000000000008152600401611fde90613f35565b60405180910390fd5b600a54341461202b576040517f08c379a000000000000000000000000000000000000000000000000000000000815260040161202290613f95565b60405180910390fd5b6000600c600084815260200190815260200160002060040160006101000a81548160ff02191690831515021790555080600c60008481526020019081526020016000206003018190555033600c600084815260200190815260200160002060010160006101000a81548173ffffffffffffffffffffffffffffffffffffffff021916908373ffffffffffffffffffffffffffffffffffffffff16021790555030600c600084815260200190815260200160002060020160006101000a81548173ffffffffffffffffffffffffffffffffffffffff021916908373ffffffffffffffffffffffffffffffffffffffff1602179055506121296009612dde565b61213433308461244b565b813073ffffffffffffffffffffffffffffffffffffffff163373ffffffffffffffffffffffffffffffffffffffff167f263223b1dd81e51054a4e6f791d45a4a1ddb4aadcd93a2dfd892615c3fdac187846040516121929190614030565b60405180910390a45050565b6000600560008473ffffffffffffffffffffffffffffffffffffffff1673ffffffffffffffffffffffffffffffffffffffff16815260200190815260200160002060008373ffffffffffffffffffffffffffffffffffffffff1673ffffffffffffffffffffffffffffffffffffffff16815260200190815260200160002060009054906101000a900460ff16905092915050565b60007f01ffc9a7000000000000000000000000000000000000000000000000000000007bffffffffffffffffffffffffffffffffffffffffffffffffffffffff1916827bffffffffffffffffffffffffffffffffffffffffffffffffffffffff1916149050919050565b6122a581612e3a565b6122e4576040517f08c379a00000000000000000000000000000000000000000000000000000000081526004016122db90613f55565b60405180910390fd5b50565b600033905090565b816004600083815260200190815260200160002060006101000a81548173ffffffffffffffffffffffffffffffffffffffff021916908373ffffffffffffffffffffffffffffffffffffffff160217905550808273ffffffffffffffffffffffffffffffffffffffff1661236283611658565b73ffffffffffffffffffffffffffffffffffffffff167f8c5be1e5ebec7d5bd14f71427d1e84f3dd0314c0f7b2291e5b200ac8c7c3b92560405160405180910390a45050565b600081600001549050919050565b6000806123c283611658565b90508073ffffffffffffffffffffffffffffffffffffffff168473ffffffffffffffffffffffffffffffffffffffff1614806124045750612403818561219e565b5b8061244257508373ffffffffffffffffffffffffffffffffffffffff1661242a8461075a565b73ffffffffffffffffffffffffffffffffffffffff16145b91505092915050565b8273ffffffffffffffffffffffffffffffffffffffff1661246b82611658565b73ffffffffffffffffffffffffffffffffffffffff16146124c1576040517f08c379a00000000000000000000000000000000000000000000000000000000081526004016124b890613df5565b60405180910390fd5b600073ffffffffffffffffffffffffffffffffffffffff168273ffffffffffffffffffffffffffffffffffffffff161415612531576040517f08c379a000000000000000000000000000000000000000000000000000000000815260040161252890613e35565b60405180910390fd5b61253c838383612ea6565b6125476000826122ef565b6001600360008573ffffffffffffffffffffffffffffffffffffffff1673ffffffffffffffffffffffffffffffffffffffff168152602001908152602001600020600082825461259791906141e0565b925050819055506001600360008473ffffffffffffffffffffffffffffffffffffffff1673ffffffffffffffffffffffffffffffffffffffff16815260200190815260200160002060008282546125ee9190614159565b92505081905550816002600083815260200190815260200160002060006101000a81548173ffffffffffffffffffffffffffffffffffffffff021916908373ffffffffffffffffffffffffffffffffffffffff160217905550808273ffffffffffffffffffffffffffffffffffffffff168473ffffffffffffffffffffffffffffffffffffffff167fddf252ad1be2c89b69c2b068fc378daa952ba7f163c4a11628f55a4df523b3ef60405160405180910390a46126ad838383612eab565b505050565b6001816000016000828254019250508190555050565b600073ffffffffffffffffffffffffffffffffffffffff168273ffffffffffffffffffffffffffffffffffffffff161415612738576040517f08c379a000000000000000000000000000000000000000000000000000000000815260040161272f90613f15565b60405180910390fd5b61274181612e3a565b15612781576040517f08c379a000000000000000000000000000000000000000000000000000000000815260040161277890613e15565b60405180910390fd5b61278d60008383612ea6565b6001600360008473ffffffffffffffffffffffffffffffffffffffff1673ffffffffffffffffffffffffffffffffffffffff16815260200190815260200160002060008282546127dd9190614159565b92505081905550816002600083815260200190815260200160002060006101000a81548173ffffffffffffffffffffffffffffffffffffffff021916908373ffffffffffffffffffffffffffffffffffffffff160217905550808273ffffffffffffffffffffffffffffffffffffffff16600073ffffffffffffffffffffffffffffffffffffffff167fddf252ad1be2c89b69c2b068fc378daa952ba7f163c4a11628f55a4df523b3ef60405160405180910390a461289e60008383612eab565b5050565b6128ab82612e3a565b6128ea576040517f08c379a00000000000000000000000000000000000000000000000000000000081526004016128e190613eb5565b60405180910390fd5b80600660008481526020019081526020016000209080519060200190612911929190613228565b505050565b6002600754141561295c576040517f08c379a000000000000000000000000000000000000000000000000000000000815260040161295390613fd5565b60405180910390fd5b6002600781905550600081116129a7576040517f08c379a000000000000000000000000000000000000000000000000000000000815260040161299e90613db5565b60405180910390fd5b600a5434146129eb576040517f08c379a00000000000000000000000000000000000000000000000000000000081526004016129e290613f95565b60405180910390fd5b6040518060a001604052808381526020013373ffffffffffffffffffffffffffffffffffffffff1681526020013073ffffffffffffffffffffffffffffffffffffffff16815260200182815260200160001515815250600c60008481526020019081526020016000206000820151816000015560208201518160010160006101000a81548173ffffffffffffffffffffffffffffffffffffffff021916908373ffffffffffffffffffffffffffffffffffffffff16021790555060408201518160020160006101000a81548173ffffffffffffffffffffffffffffffffffffffff021916908373ffffffffffffffffffffffffffffffffffffffff1602179055506060820151816003015560808201518160040160006101000a81548160ff021916908315150217905550905050612b2433308461244b565b813073ffffffffffffffffffffffffffffffffffffffff163373ffffffffffffffffffffffffffffffffffffffff167fd547e933094f12a9159076970143ebe73234e64480317844b0dcb36117116de484604051612b829190614030565b60405180910390a460016007819055505050565b8173ffffffffffffffffffffffffffffffffffffffff168373ffffffffffffffffffffffffffffffffffffffff161415612c05576040517f08c379a0000000000000000000000000000000000000000000000000000000008152600401612bfc90613e55565b60405180910390fd5b80600560008573ffffffffffffffffffffffffffffffffffffffff1673ffffffffffffffffffffffffffffffffffffffff16815260200190815260200160002060008473ffffffffffffffffffffffffffffffffffffffff1673ffffffffffffffffffffffffffffffffffffffff16815260200190815260200160002060006101000a81548160ff0219169083151502179055508173ffffffffffffffffffffffffffffffffffffffff168373ffffffffffffffffffffffffffffffffffffffff167f17307eab39ab6107e8899845ad3d59bd9653f200f220920489ca2b5937696c3183604051612cf69190613d38565b60405180910390a3505050565b612d0e84848461244b565b612d1a84848484612eb0565b612d59576040517f08c379a0000000000000000000000000000000000000000000000000000000008152600401612d5090613dd5565b60405180910390fd5b50505050565b606060405180602001604052806000815250905090565b6060612d818261229c565b6000612d8b612d5f565b90506000815111612dab5760405180602001604052806000815250612dd6565b80612db584613047565b604051602001612dc6929190613c3f565b6040516020818303038152906040525b915050919050565b60008160000154905060008111612e2a576040517f08c379a0000000000000000000000000000000000000000000000000000000008152600401612e2190613d95565b60405180910390fd5b6001810382600001819055505050565b60008073ffffffffffffffffffffffffffffffffffffffff166002600084815260200190815260200160002060009054906101000a900473ffffffffffffffffffffffffffffffffffffffff1673ffffffffffffffffffffffffffffffffffffffff1614159050919050565b505050565b505050565b6000612ed18473ffffffffffffffffffffffffffffffffffffffff166131a8565b1561303a578373ffffffffffffffffffffffffffffffffffffffff1663150b7a02612efa6122e7565b8786866040518563ffffffff1660e01b8152600401612f1c9493929190613cca565b602060405180830381600087803b158015612f3657600080fd5b505af1925050508015612f6757506040513d601f19601f82011682018060405250810190612f649190613604565b60015b612fea573d8060008114612f97576040519150601f19603f3d011682016040523d82523d6000602084013e612f9c565b606091505b50600081511415612fe2576040517f08c379a0000000000000000000000000000000000000000000000000000000008152600401612fd990613dd5565b60405180910390fd5b805181602001fd5b63150b7a0260e01b7bffffffffffffffffffffffffffffffffffffffffffffffffffffffff1916817bffffffffffffffffffffffffffffffffffffffffffffffffffffffff19161491505061303f565b600190505b949350505050565b6060600082141561308f576040518060400160405280600181526020017f300000000000000000000000000000000000000000000000000000000000000081525090506131a3565b600082905060005b600082146130c15780806130aa9061433f565b915050600a826130ba91906141af565b9150613097565b60008167ffffffffffffffff8111156130dd576130dc614475565b5b6040519080825280601f01601f19166020018201604052801561310f5781602001600182028036833780820191505090505b5090505b6000851461319c5760018261312891906141e0565b9150600a856131379190614388565b60306131439190614159565b60f81b81838151811061315957613158614446565b5b60200101907effffffffffffffffffffffffffffffffffffffffffffffffffffffffffffff1916908160001a905350600a8561319591906141af565b9450613113565b8093505050505b919050565b6000808273ffffffffffffffffffffffffffffffffffffffff163b119050919050565b6040518060a0016040528060008152602001600073ffffffffffffffffffffffffffffffffffffffff168152602001600073ffffffffffffffffffffffffffffffffffffffff168152602001600081526020016000151581525090565b828054613234906142dc565b90600052602060002090601f016020900481019282613256576000855561329d565b82601f1061326f57805160ff191683800117855561329d565b8280016001018555821561329d579182015b8281111561329c578251825591602001919060010190613281565b5b5090506132aa91906132ae565b5090565b5b808211156132c75760008160009055506001016132af565b5090565b60006132de6132d984614070565b61404b565b9050828152602081018484840111156132fa576132f96144a9565b5b61330584828561429a565b509392505050565b600061332061331b846140a1565b61404b565b90508281526020810184848401111561333c5761333b6144a9565b5b61334784828561429a565b509392505050565b60008135905061335e81614a3d565b92915050565b60008135905061337381614a54565b92915050565b60008135905061338881614a6b565b92915050565b60008151905061339d81614a6b565b92915050565b600082601f8301126133b8576133b76144a4565b5b81356133c88482602086016132cb565b91505092915050565b600082601f8301126133e6576133e56144a4565b5b81356133f684826020860161330d565b91505092915050565b60008135905061340e81614a82565b92915050565b60006020828403121561342a576134296144b3565b5b60006134388482850161334f565b91505092915050565b60008060408385031215613458576134576144b3565b5b60006134668582860161334f565b92505060206134778582860161334f565b9150509250929050565b60008060006060848603121561349a576134996144b3565b5b60006134a88682870161334f565b93505060206134b98682870161334f565b92505060406134ca868287016133ff565b9150509250925092565b600080600080608085870312156134ee576134ed6144b3565b5b60006134fc8782880161334f565b945050602061350d8782880161334f565b935050604061351e878288016133ff565b925050606085013567ffffffffffffffff81111561353f5761353e6144ae565b5b61354b878288016133a3565b91505092959194509250565b6000806040838503121561356e5761356d6144b3565b5b600061357c8582860161334f565b925050602061358d85828601613364565b9150509250929050565b600080604083850312156135ae576135ad6144b3565b5b60006135bc8582860161334f565b92505060206135cd858286016133ff565b9150509250929050565b6000602082840312156135ed576135ec6144b3565b5b60006135fb84828501613379565b91505092915050565b60006020828403121561361a576136196144b3565b5b60006136288482850161338e565b91505092915050565b60008060408385031215613648576136476144b3565b5b600083013567ffffffffffffffff811115613666576136656144ae565b5b613672858286016133d1565b9250506020613683858286016133ff565b9150509250929050565b6000602082840312156136a3576136a26144b3565b5b60006136b1848285016133ff565b91505092915050565b600080604083850312156136d1576136d06144b3565b5b60006136df858286016133ff565b92505060206136f0858286016133ff565b9150509250929050565b60006137068383613b51565b60a08301905092915050565b61371b81614226565b82525050565b61372a81614214565b82525050565b600061373b826140e2565b6137458185614110565b9350613750836140d2565b8060005b8381101561378157815161376888826136fa565b975061377383614103565b925050600181019050613754565b5085935050505092915050565b61379781614238565b82525050565b6137a681614238565b82525050565b60006137b7826140ed565b6137c18185614121565b93506137d18185602086016142a9565b6137da816144b8565b840191505092915050565b60006137f0826140f8565b6137fa818561413d565b935061380a8185602086016142a9565b613813816144b8565b840191505092915050565b6000613829826140f8565b613833818561414e565b93506138438185602086016142a9565b80840191505092915050565b600061385c602f8361413d565b9150613867826144c9565b604082019050919050565b600061387f601b8361413d565b915061388a82614518565b602082019050919050565b60006138a2601f8361413d565b91506138ad82614541565b602082019050919050565b60006138c560328361413d565b91506138d08261456a565b604082019050919050565b60006138e860258361413d565b91506138f3826145b9565b604082019050919050565b600061390b601c8361413d565b915061391682614608565b602082019050919050565b600061392e60248361413d565b915061393982614631565b604082019050919050565b600061395160198361413d565b915061395c82614680565b602082019050919050565b6000613974602b8361413d565b915061397f826146a9565b604082019050919050565b600061399760298361413d565b91506139a2826146f8565b604082019050919050565b60006139ba602e8361413d565b91506139c582614747565b604082019050919050565b60006139dd60408361413d565b91506139e882614796565b604082019050919050565b6000613a00603e8361413d565b9150613a0b826147e5565b604082019050919050565b6000613a2360208361413d565b9150613a2e82614834565b602082019050919050565b6000613a46602a8361413d565b9150613a518261485d565b604082019050919050565b6000613a6960188361413d565b9150613a74826148ac565b602082019050919050565b6000613a8c60218361413d565b9150613a97826148d5565b604082019050919050565b6000613aaf60248361413d565b9150613aba82614924565b604082019050919050565b6000613ad2600083614132565b9150613add82614973565b600082019050919050565b6000613af5602e8361413d565b9150613b0082614976565b604082019050919050565b6000613b18601f8361413d565b9150613b23826149c5565b602082019050919050565b6000613b3b60288361413d565b9150613b46826149ee565b604082019050919050565b60a082016000820151613b676000850182613c21565b506020820151613b7a6020850182613712565b506040820151613b8d6040850182613712565b506060820151613ba06060850182613c21565b506080820151613bb3608085018261378e565b50505050565b60a082016000820151613bcf6000850182613c21565b506020820151613be26020850182613712565b506040820151613bf56040850182613712565b506060820151613c086060850182613c21565b506080820151613c1b608085018261378e565b50505050565b613c2a81614290565b82525050565b613c3981614290565b82525050565b6000613c4b828561381e565b9150613c57828461381e565b91508190509392505050565b6000613c6e82613ac5565b9150819050919050565b6000602082019050613c8d6000830184613721565b92915050565b6000606082019050613ca86000830186613721565b613cb56020830185613721565b613cc26040830184613c30565b949350505050565b6000608082019050613cdf6000830187613721565b613cec6020830186613721565b613cf96040830185613c30565b8181036060830152613d0b81846137ac565b905095945050505050565b60006020820190508181036000830152613d308184613730565b905092915050565b6000602082019050613d4d600083018461379d565b92915050565b60006020820190508181036000830152613d6d81846137e5565b905092915050565b60006020820190508181036000830152613d8e8161384f565b9050919050565b60006020820190508181036000830152613dae81613872565b9050919050565b60006020820190508181036000830152613dce81613895565b9050919050565b60006020820190508181036000830152613dee816138b8565b9050919050565b60006020820190508181036000830152613e0e816138db565b9050919050565b60006020820190508181036000830152613e2e816138fe565b9050919050565b60006020820190508181036000830152613e4e81613921565b9050919050565b60006020820190508181036000830152613e6e81613944565b9050919050565b60006020820190508181036000830152613e8e81613967565b9050919050565b60006020820190508181036000830152613eae8161398a565b9050919050565b60006020820190508181036000830152613ece816139ad565b9050919050565b60006020820190508181036000830152613eee816139d0565b9050919050565b60006020820190508181036000830152613f0e816139f3565b9050919050565b60006020820190508181036000830152613f2e81613a16565b9050919050565b60006020820190508181036000830152613f4e81613a39565b9050919050565b60006020820190508181036000830152613f6e81613a5c565b9050919050565b60006020820190508181036000830152613f8e81613a7f565b9050919050565b60006020820190508181036000830152613fae81613aa2565b9050919050565b60006020820190508181036000830152613fce81613ae8565b9050919050565b60006020820190508181036000830152613fee81613b0b565b9050919050565b6000602082019050818103600083015261400e81613b2e565b9050919050565b600060a08201905061402a6000830184613bb9565b92915050565b60006020820190506140456000830184613c30565b92915050565b6000614055614066565b9050614061828261430e565b919050565b6000604051905090565b600067ffffffffffffffff82111561408b5761408a614475565b5b614094826144b8565b9050602081019050919050565b600067ffffffffffffffff8211156140bc576140bb614475565b5b6140c5826144b8565b9050602081019050919050565b6000819050602082019050919050565b600081519050919050565b600081519050919050565b600081519050919050565b6000602082019050919050565b600082825260208201905092915050565b600082825260208201905092915050565b600081905092915050565b600082825260208201905092915050565b600081905092915050565b600061416482614290565b915061416f83614290565b9250827fffffffffffffffffffffffffffffffffffffffffffffffffffffffffffffffff038211156141a4576141a36143b9565b5b828201905092915050565b60006141ba82614290565b91506141c583614290565b9250826141d5576141d46143e8565b5b828204905092915050565b60006141eb82614290565b91506141f683614290565b925082821015614209576142086143b9565b5b828203905092915050565b600061421f82614270565b9050919050565b600061423182614270565b9050919050565b60008115159050919050565b60007fffffffff0000000000000000000000000000000000000000000000000000000082169050919050565b600073ffffffffffffffffffffffffffffffffffffffff82169050919050565b6000819050919050565b82818337600083830152505050565b60005b838110156142c75780820151818401526020810190506142ac565b838111156142d6576000848401525b50505050565b600060028204905060018216806142f457607f821691505b6020821081141561430857614307614417565b5b50919050565b614317826144b8565b810181811067ffffffffffffffff8211171561433657614335614475565b5b80604052505050565b600061434a82614290565b91507fffffffffffffffffffffffffffffffffffffffffffffffffffffffffffffffff82141561437d5761437c6143b9565b5b600182019050919050565b600061439382614290565b915061439e83614290565b9250826143ae576143ad6143e8565b5b828206905092915050565b7f4e487b7100000000000000000000000000000000000000000000000000000000600052601160045260246000fd5b7f4e487b7100000000000000000000000000000000000000000000000000000000600052601260045260246000fd5b7f4e487b7100000000000000000000000000000000000000000000000000000000600052602260045260246000fd5b7f4e487b7100000000000000000000000000000000000000000000000000000000600052603260045260246000fd5b7f4e487b7100000000000000000000000000000000000000000000000000000000600052604160045260246000fd5b600080fd5b600080fd5b600080fd5b600080fd5b6000601f19601f8301169050919050565b7f4f6e6c79206d61726b6574706c616365206f776e65722063616e20757064617460008201527f65206c697374696e672070726963650000000000000000000000000000000000602082015250565b7f436f756e7465723a2064656372656d656e74206f766572666c6f770000000000600082015250565b7f5072696365206d7573742062652067726561746572207468616e207a65726f00600082015250565b7f4552433732313a207472616e7366657220746f206e6f6e20455243373231526560008201527f63656976657220696d706c656d656e7465720000000000000000000000000000602082015250565b7f4552433732313a207472616e736665722066726f6d20696e636f72726563742060008201527f6f776e6572000000000000000000000000000000000000000000000000000000602082015250565b7f4552433732313a20746f6b656e20616c7265616479206d696e74656400000000600082015250565b7f4552433732313a207472616e7366657220746f20746865207a65726f2061646460008201527f7265737300000000000000000000000000000000000000000000000000000000602082015250565b7f4552433732313a20617070726f766520746f2063616c6c657200000000000000600082015250565b7f4f6e6c79206974656d2073656c6c65722063616e20706572666f726d2074686960008201527f73206f7065726174696f6e000000000000000000000000000000000000000000602082015250565b7f4552433732313a2061646472657373207a65726f206973206e6f74206120766160008201527f6c6964206f776e65720000000000000000000000000000000000000000000000602082015250565b7f45524337323155524953746f726167653a2055524920736574206f66206e6f6e60008201527f6578697374656e7420746f6b656e000000000000000000000000000000000000602082015250565b7f506c65617365207375626d6974207468652061736b696e67207072696365206960008201527f6e206f7264657220746f20636f6d706c65746520746865207075726368617365602082015250565b7f4552433732313a20617070726f76652063616c6c6572206973206e6f7420746f60008201527f6b656e206f776e6572206e6f7220617070726f76656420666f7220616c6c0000602082015250565b7f4552433732313a206d696e7420746f20746865207a65726f2061646472657373600082015250565b7f4f6e6c79206974656d206f776e65722063616e20706572666f726d207468697360008201527f206f7065726174696f6e00000000000000000000000000000000000000000000602082015250565b7f4552433732313a20696e76616c696420746f6b656e2049440000000000000000600082015250565b7f4552433732313a20617070726f76616c20746f2063757272656e74206f776e6560008201527f7200000000000000000000000000000000000000000000000000000000000000602082015250565b7f5072696365206d75737420626520657175616c20746f206c697374696e67207060008201527f7269636500000000000000000000000000000000000000000000000000000000602082015250565b50565b7f4552433732313a2063616c6c6572206973206e6f7420746f6b656e206f776e6560008201527f72206e6f7220617070726f766564000000000000000000000000000000000000602082015250565b7f5265656e7472616e637947756172643a207265656e7472616e742063616c6c00600082015250565b7f4f6e6c792063616e63656c206974656d7320776869636820617265206e6f742060008201527f736f6c6420796574000000000000000000000000000000000000000000000000602082015250565b614a4681614214565b8114614a5157600080fd5b50565b614a5d81614238565b8114614a6857600080fd5b50565b614a7481614244565b8114614a7f57600080fd5b50565b614a8b81614290565b8114614a9657600080fd5b5056fea2646970667358221220474ec6ba96a177ecb5a6d6e861d9eb0f44457919ebdc879dcc459b08bcc6e95964736f6c63430008070033","linkReferences":{},"deployedLinkReferences":{}}